:100000000C9458000C9480000C9480000C94800098
:100010000C9480000C9480000C9480000C94800060
:100020000C9480000C9480000C9480000C94800050
:100030000C9480000C9480000C9480000C94800040
:100040000C9446020C9480000C940C020C94D10188
:100050000C9480000C9480000C9480000C94800020
:100060000C9480000C948000000000002500280003
:100070002B00040404040404040402020202020229
:10008000030303030303010204081020408001025C
:1000900004081020010204081020000000070002DC
:1000A00001000003040600000000000000009002B0
:1000B00011241FBECFEFD8E0DEBFCDBF11E0A0E01E
:1000C000B1E0E6E7F8E002C005900D92A031B1077B
:1000D000D9F721E0A0E1B1E001C01D92AB3CB2072D
:1000E000E1F710E0C8E5D0E004C02197FE010E94CE
:1000F0003304C735D107C9F70E94CB020C9408041A
:100100000C940000E7EAF0E02491E3E9F0E0949138
:10011000EFE7F0E0E491EE2309F43BC0222339F14C
:10012000233091F038F42130A9F0223001F524B5C4
:100130002F7D12C0263091F02730A1F02430B9F481
:10014000209180002F7D03C0209180002F77209385
:1001500080000DC024B52F7724BD09C02091B000C8
:100160002F7703C02091B0002F7D2093B000F0E0E6
:10017000EE0FFF1FE859FF4FA591B4912FB7F894E8
:10018000EC91811103C090959E2301C09E2B9C93FE
:100190002FBF08950895CF92DF92EF92FF920F93B1
:1001A0001F93CF93DF936C01EB017B01E40EF51EEF
:1001B00000E010E0CE15DF0561F06991D601ED9108
:1001C000FC910190F081E02DC6010995080F191FDF
:1001D000F1CFC801DF91CF911F910F91FF90EF9068
:1001E000DF90CF9008950F931F93CF93DF93FC017F
:1001F000A685B7858D01005C1F4FE8018881998134
:1002000001968F739927AD014E5B5F4FEA012881FC
:10021000398182179307D1F3E80128813981A20F30
:10022000B31F6C93A685B785A05CBF4F11969C93B6
:100230008E93A689B7892C9181E090E0078C02C04B
:10024000880F991F0A94E2F7822B8C9381E081A397
:100250000488F589E02D80818064808381E090E0CE
:10026000DF91CF911F910F910895682F89EA91E056
:100270000C94F300FC0181A1882329F0A489B5899D
:100280008C9186FFFBCF11A20895FC01A485B58552
:10029000FD01E05CFF4F20813181329680819181A8
:1002A0002817390779F080819181A80FB91F8C91A7
:1002B000208131812F5F3F4F2F733327318320837C
:1002C00090E008958FEF9FEF0895DC011C96ED916B
:1002D000FC911D97DF01A05CBF4F2D913C911197C0
:1002E00012968D919C9111972817390739F08D91AD
:1002F0009C91E80FF91F808190E008958FEF9FEFA8
:100300000895FC0124853585F901E05CFF4F80816B
:100310009181329620813181821B930B8F739927B3
:10032000089589EA91E00C9481018E3008F08E5096
:100330008770806480937C0080917A0080648093D1
:100340007A0080917A0086FDFCCF80917800209120
:10035000790090E0922B08953FB7F89480911501B1
:1003600090911601A0911701B091180126B5A89B94
:1003700005C02F3F19F00196A11DB11D3FBFBA2F37
:10038000A92F982F8827820F911DA11DB11DBC0197
:10039000CD0142E0660F771F881F991F4A95D1F75C
:1003A00008951F920F920FB60F9211242F933F932F
:1003B0008F939F93EF93FF9320916101309162019E
:1003C00080916301909164012817390731F480917D
:1003D000C1008F7D8093C10014C0E0916301F09152
:1003E0006401EF5DFE4F2081809163019091640173
:1003F00001968F73992790936401809363012093F2
:10040000C600FF91EF919F918F913F912F910F9097
:100410000FBE0F901F9018951F920F920FB60F925C
:1004200011242F934F935F938F939F93EF93FF9399
:100430008091C00082FD1CC02091C6008091A50162
:100440009091A60101968F7399274091A701509131
:10045000A8018417950771F0E091A501F091A6011C
:10046000EB59FE4F20839093A6018093A50102C013
:100470008091C600FF91EF919F918F915F914F9175
:100480002F910F900FBE0F901F9018951F920F92F3
:100490000FB60F9211242F933F938F939F93AF9397
:1004A000BF938091110190911201A0911301B0911D
:1004B00014013091100123E0230F2D3720F4019611
:1004C000A11DB11D05C026E8230F0296A11DB11D77
:1004D000209310018093110190931201A0931301B6
:1004E000B09314018091150190911601A09117010C
:1004F000B09118010196A11DB11D80931501909333
:100500001601A0931701B0931801BF91AF919F916D
:100510008F913F912F910F900FBE0F901F901895C4
:10052000E9EAF1E01382128288EE93E0A0E0B0E005
:1005300084839583A683B78384E091E0918380834D
:1005400085E691E09587848781E291E097878687A9
:1005500085EC90E0918B808B84EC90E0938B828B88
:1005600080EC90E0958B848B81EC90E0978B868B70
:1005700082EC90E0918F808F86EC90E0938F828F59
:1005800084E0848F83E0858F87E0868F85E0878F86
:1005900081E080A30895789484B5826084BD84B599
:1005A000816084BD85B5826085BD85B5816085BD6E
:1005B00080916E00816080936E0010928100809126
:1005C00081008260809381008091810081608093AE
:1005D0008100809180008160809380008091B100D3
:1005E00084608093B1008091B00081608093B000FE
:1005F00080917A00846080937A0080917A00826092
:1006000080937A0080917A00816080937A00809153
:100610007A00806880937A001092C10010922001C5
:1006200010921F0110921E0110921D0110921C01C8
:1006300010921B0110921A0110921901E091BD0154
:10064000F091BE0181E090E09C010090C90102C0E0
:10065000220F331F0A94E2F72083E091B901F09151
:10066000BA011082E091BB01F091BC012FEC208314
:100670001092CA01E091BF01F091C00140819C013C
:100680000090C50102C0220F331F0A94E2F7242B09
:100690002083E091BF01F091C00140819C01009056
:1006A000C60102C0220F331F0A94E2F7242B2083D5
:1006B000E091BF01F091C00140819C010090C70111
:1006C00002C0220F331F0A94E2F7242B2083E0910B
:1006D000BF01F091C00120810090C80102C0880FC5
:1006E000991F0A94E2F780958223808363E0E62EC7
:1006F000F12C8EE00E9495016C018FE00E94950123
:100700008C01C0911901D0911A01CE01B7010E944C
:100710000B04892B31F480E00E94820080E090E09D
:1007200005C081E00E94820085E090E0889F500132
:10073000899FB00CB00C1124C601880F991F8C0D35
:100740009D1D20911F0130912001820F931F9093D6
:10075000200180931F01C801880F991F800F911FEE
:1007600020911D0130911E01820F931F90931E0155
:1007700080931D019501220F331F2A0D3B1D80918F
:100780001B0190911C01280F391F30931C012093ED
:100790001B01C6010E94350180911F01909120012B
:1007A0000E943501C8010E94350180911D01909180
:1007B0001E010E943501C5010E94350180911B0177
:1007C00090911C010E9435012196D0931A01C0938B
:1007D00019010E94AC01EB0158EB852E5BE0952ED0
:1007E000A12CB12C0E94AC016C1B7D0B683E7340A8
:1007F00038F081E0881A9108A108B108C851DC4F8F
:1008000081149104A104B10469F70E94910171CF90
:10081000F8940C94390497FB072E16F4009407D033
:1008200077FD09D00E941F0407FC05D03EF4909587
:1008300081959F4F0895709561957F4F0895AA1BEC
:10084000BB1B51E107C0AA1FBB1FA617B70710F0BB
:10085000A61BB70B881F991F5A95A9F780959095ED
:10086000BC01CD010895EE0FFF1F0590F491E02D1E
:060870000994F894FFCF8B
:1008760000000000F300CB008101450165013A014B
:00000001FF
